{
  "_format": "hh-sol-artifact-1",
  "contractName": "GEMS",
  "sourceName": "contracts/GEMS.sol",
  "abi": [
    {
      "inputs": [],
      "stateMutability": "nonpayable",
      "type": "constructor"
    },
    {
      "anonymous": false,
      "inputs": [
        {
          "indexed": true,
          "internalType": "address",
          "name": "owner",
          "type": "address"
        },
        {
          "indexed": true,
          "internalType": "address",
          "name": "approved",
          "type": "address"
        },
        {
          "indexed": true,
          "internalType": "uint256",
          "name": "tokenId",
          "type": "uint256"
        }
      ],
      "name": "Approval",
      "type": "event"
    },
    {
      "anonymous": false,
      "inputs": [
        {
          "indexed": true,
          "internalType": "address",
          "name": "owner",
          "type": "address"
        },
        {
          "indexed": true,
          "internalType": "address",
          "name": "operator",
          "type": "address"
        },
        {
          "indexed": false,
          "internalType": "bool",
          "name": "approved",
          "type": "bool"
        }
      ],
      "name": "ApprovalForAll",
      "type": "event"
    },
    {
      "anonymous": false,
      "inputs": [
        {
          "indexed": true,
          "internalType": "address",
          "name": "previousOwner",
          "type": "address"
        },
        {
          "indexed": true,
          "internalType": "address",
          "name": "newOwner",
          "type": "address"
        }
      ],
      "name": "OwnershipTransferred",
      "type": "event"
    },
    {
      "anonymous": false,
      "inputs": [
        {
          "indexed": true,
          "internalType": "address",
          "name": "from",
          "type": "address"
        },
        {
          "indexed": true,
          "internalType": "address",
          "name": "to",
          "type": "address"
        },
        {
          "indexed": true,
          "internalType": "uint256",
          "name": "tokenId",
          "type": "uint256"
        }
      ],
      "name": "Transfer",
      "type": "event"
    },
    {
      "inputs": [
        {
          "internalType": "address",
          "name": "to",
          "type": "address"
        },
        {
          "internalType": "uint256",
          "name": "tokenId",
          "type": "uint256"
        }
      ],
      "name": "approve",
      "outputs": [],
      "stateMutability": "nonpayable",
      "type": "function"
    },
    {
      "inputs": [
        {
          "internalType": "address",
          "name": "owner",
          "type": "address"
        }
      ],
      "name": "balanceOf",
      "outputs": [
        {
          "internalType": "uint256",
          "name": "",
          "type": "uint256"
        }
      ],
      "stateMutability": "view",
      "type": "function"
    },
    {
      "inputs": [
        {
          "internalType": "uint256",
          "name": "tokenId",
          "type": "uint256"
        }
      ],
      "name": "getApproved",
      "outputs": [
        {
          "internalType": "address",
          "name": "",
          "type": "address"
        }
      ],
      "stateMutability": "view",
      "type": "function"
    },
    {
      "inputs": [
        {
          "internalType": "address",
          "name": "owner",
          "type": "address"
        },
        {
          "internalType": "address",
          "name": "operator",
          "type": "address"
        }
      ],
      "name": "isApprovedForAll",
      "outputs": [
        {
          "internalType": "bool",
          "name": "",
          "type": "bool"
        }
      ],
      "stateMutability": "view",
      "type": "function"
    },
    {
      "inputs": [],
      "name": "name",
      "outputs": [
        {
          "internalType": "string",
          "name": "",
          "type": "string"
        }
      ],
      "stateMutability": "view",
      "type": "function"
    },
    {
      "inputs": [],
      "name": "owner",
      "outputs": [
        {
          "internalType": "address",
          "name": "",
          "type": "address"
        }
      ],
      "stateMutability": "view",
      "type": "function"
    },
    {
      "inputs": [
        {
          "internalType": "uint256",
          "name": "tokenId",
          "type": "uint256"
        }
      ],
      "name": "ownerOf",
      "outputs": [
        {
          "internalType": "address",
          "name": "",
          "type": "address"
        }
      ],
      "stateMutability": "view",
      "type": "function"
    },
    {
      "inputs": [],
      "name": "renounceOwnership",
      "outputs": [],
      "stateMutability": "nonpayable",
      "type": "function"
    },
    {
      "inputs": [
        {
          "internalType": "string",
          "name": "uri",
          "type": "string"
        }
      ],
      "name": "safeMint",
      "outputs": [],
      "stateMutability": "nonpayable",
      "type": "function"
    },
    {
      "inputs": [
        {
          "internalType": "address",
          "name": "from",
          "type": "address"
        },
        {
          "internalType": "address",
          "name": "to",
          "type": "address"
        },
        {
          "internalType": "uint256",
          "name": "tokenId",
          "type": "uint256"
        }
      ],
      "name": "safeTransferFrom",
      "outputs": [],
      "stateMutability": "nonpayable",
      "type": "function"
    },
    {
      "inputs": [
        {
          "internalType": "address",
          "name": "from",
          "type": "address"
        },
        {
          "internalType": "address",
          "name": "to",
          "type": "address"
        },
        {
          "internalType": "uint256",
          "name": "tokenId",
          "type": "uint256"
        },
        {
          "internalType": "bytes",
          "name": "_data",
          "type": "bytes"
        }
      ],
      "name": "safeTransferFrom",
      "outputs": [],
      "stateMutability": "nonpayable",
      "type": "function"
    },
    {
      "inputs": [
        {
          "internalType": "address",
          "name": "operator",
          "type": "address"
        },
        {
          "internalType": "bool",
          "name": "approved",
          "type": "bool"
        }
      ],
      "name": "setApprovalForAll",
      "outputs": [],
      "stateMutability": "nonpayable",
      "type": "function"
    },
    {
      "inputs": [
        {
          "internalType": "bytes4",
          "name": "interfaceId",
          "type": "bytes4"
        }
      ],
      "name": "supportsInterface",
      "outputs": [
        {
          "internalType": "bool",
          "name": "",
          "type": "bool"
        }
      ],
      "stateMutability": "view",
      "type": "function"
    },
    {
      "inputs": [],
      "name": "symbol",
      "outputs": [
        {
          "internalType": "string",
          "name": "",
          "type": "string"
        }
      ],
      "stateMutability": "view",
      "type": "function"
    },
    {
      "inputs": [
        {
          "internalType": "uint256",
          "name": "tokenId",
          "type": "uint256"
        }
      ],
      "name": "tokenURI",
      "outputs": [
        {
          "internalType": "string",
          "name": "",
          "type": "string"
        }
      ],
      "stateMutability": "view",
      "type": "function"
    },
    {
      "inputs": [],
      "name": "totalSupply",
      "outputs": [
        {
          "internalType": "uint256",
          "name": "",
          "type": "uint256"
        }
      ],
      "stateMutability": "view",
      "type": "function"
    },
    {
      "inputs": [
        {
          "internalType": "address",
          "name": "from",
          "type": "address"
        },
        {
          "internalType": "address",
          "name": "to",
          "type": "address"
        },
        {
          "internalType": "uint256",
          "name": "tokenId",
          "type": "uint256"
        }
      ],
      "name": "transferFrom",
      "outputs": [],
      "stateMutability": "nonpayable",
      "type": "function"
    },
    {
      "inputs": [
        {
          "internalType": "address",
          "name": "newOwner",
          "type": "address"
        }
      ],
      "name": "transferOwnership",
      "outputs": [],
      "stateMutability": "nonpayable",
      "type": "function"
    }
  ],
  "bytecode": "0x608060405260006008553480156200001657600080fd5b5060408051808201825260048082526347454d5360e01b6020808401828152855180870190965292855284015281519192916200005691600091620000e5565b5080516200006c906001906020840190620000e5565b50505062000089620000836200008f60201b60201c565b62000093565b620001c8565b3390565b600780546001600160a01b038381166001600160a01b0319831681179093556040519116919082907f8be0079c531659141344cd1fd0a4f28419497f9722a3daafe3b4186f6b6457e090600090a35050565b828054620000f3906200018b565b90600052602060002090601f01602090048101928262000117576000855562000162565b82601f106200013257805160ff191683800117855562000162565b8280016001018555821562000162579182015b828111156200016257825182559160200191906001019062000145565b506200017092915062000174565b5090565b5b8082111562000170576000815560010162000175565b600181811c90821680620001a057607f821691505b60208210811415620001c257634e487b7160e01b600052602260045260246000fd5b50919050565b61190180620001d86000396000f3fe608060405234801561001057600080fd5b50600436106101165760003560e01c806370a08231116100a2578063a22cb46511610071578063a22cb4651461022f578063b88d4fde14610242578063c87b56dd14610255578063e985e9c514610268578063f2fde38b146102a457600080fd5b806370a08231146101fb578063715018a61461020e5780638da5cb5b1461021657806395d89b411461022757600080fd5b806318160ddd116100e957806318160ddd1461019857806323b872dd146101af57806342842e0e146101c25780636352211e146101d5578063695850fb146101e857600080fd5b806301ffc9a71461011b57806306fdde0314610143578063081812fc14610158578063095ea7b314610183575b600080fd5b61012e6101293660046115b6565b6102b7565b60405190151581526020015b60405180910390f35b61014b610309565b60405161013a91906116e4565b61016b610166366004611634565b61039b565b6040516001600160a01b03909116815260200161013a565b61019661019136600461158d565b610428565b005b6101a160085481565b60405190815260200161013a565b6101966101bd36600461149f565b61053e565b6101966101d036600461149f565b61056f565b61016b6101e3366004611634565b61058a565b6101966101f63660046115ee565b610601565b6101a1610209366004611453565b610631565b6101966106b8565b6007546001600160a01b031661016b565b61014b61071e565b61019661023d366004611553565b61072d565b6101966102503660046114da565b61073c565b61014b610263366004611634565b610774565b61012e61027636600461146d565b6001600160a01b03918216600090815260056020908152604080832093909416825291909152205460ff1690565b6101966102b2366004611453565b61077f565b60006001600160e01b031982166380ac58cd60e01b14806102e857506001600160e01b03198216635b5e139f60e01b145b8061030357506301ffc9a760e01b6001600160e01b03198316145b92915050565b60606000805461031890611809565b80601f016020809104026020016040519081016040528092919081815260200182805461034490611809565b80156103915780601f1061036657610100808354040283529160200191610391565b820191906000526020600020905b81548152906001019060200180831161037457829003601f168201915b5050505050905090565b60006103a68261084a565b61040c5760405162461bcd60e51b815260206004820152602c60248201527f4552433732313a20617070726f76656420717565727920666f72206e6f6e657860448201526b34b9ba32b73a103a37b5b2b760a11b60648201526084015b60405180910390fd5b506000908152600460205260409020546001600160a01b031690565b60006104338261058a565b9050806001600160a01b0316836001600160a01b031614156104a15760405162461bcd60e51b815260206004820152602160248201527f4552433732313a20617070726f76616c20746f2063757272656e74206f776e656044820152603960f91b6064820152608401610403565b336001600160a01b03821614806104bd57506104bd8133610276565b61052f5760405162461bcd60e51b815260206004820152603860248201527f4552433732313a20617070726f76652063616c6c6572206973206e6f74206f7760448201527f6e6572206e6f7220617070726f76656420666f7220616c6c00000000000000006064820152608401610403565b6105398383610867565b505050565b61054833826108d5565b6105645760405162461bcd60e51b815260040161040390611749565b6105398383836109bf565b6105398383836040518060200160405280600081525061073c565b6000818152600260205260408120546001600160a01b0316806103035760405162461bcd60e51b815260206004820152602960248201527f4552433732313a206f776e657220717565727920666f72206e6f6e657869737460448201526832b73a103a37b5b2b760b91b6064820152608401610403565b61060d33600854610b5b565b61061960085482610b75565b6008805490600061062983611844565b919050555050565b60006001600160a01b03821661069c5760405162461bcd60e51b815260206004820152602a60248201527f4552433732313a2062616c616e636520717565727920666f7220746865207a65604482015269726f206164647265737360b01b6064820152608401610403565b506001600160a01b031660009081526003602052604090205490565b6007546001600160a01b031633146107125760405162461bcd60e51b815260206004820181905260248201527f4f776e61626c653a2063616c6c6572206973206e6f7420746865206f776e65726044820152606401610403565b61071c6000610c00565b565b60606001805461031890611809565b610738338383610c52565b5050565b61074633836108d5565b6107625760405162461bcd60e51b815260040161040390611749565b61076e84848484610d21565b50505050565b606061030382610d54565b6007546001600160a01b031633146107d95760405162461bcd60e51b815260206004820181905260248201527f4f776e61626c653a2063616c6c6572206973206e6f7420746865206f776e65726044820152606401610403565b6001600160a01b03811661083e5760405162461bcd60e51b815260206004820152602660248201527f4f776e61626c653a206e6577206f776e657220697320746865207a65726f206160448201526564647265737360d01b6064820152608401610403565b61084781610c00565b50565b6000908152600260205260409020546001600160a01b0316151590565b600081815260046020526040902080546001600160a01b0319166001600160a01b038416908117909155819061089c8261058a565b6001600160a01b03167f8c5be1e5ebec7d5bd14f71427d1e84f3dd0314c0f7b2291e5b200ac8c7c3b92560405160405180910390a45050565b60006108e08261084a565b6109415760405162461bcd60e51b815260206004820152602c60248201527f4552433732313a206f70657261746f7220717565727920666f72206e6f6e657860448201526b34b9ba32b73a103a37b5b2b760a11b6064820152608401610403565b600061094c8361058a565b9050806001600160a01b0316846001600160a01b0316148061099357506001600160a01b0380821660009081526005602090815260408083209388168352929052205460ff165b806109b75750836001600160a01b03166109ac8461039b565b6001600160a01b0316145b949350505050565b826001600160a01b03166109d28261058a565b6001600160a01b031614610a365760405162461bcd60e51b815260206004820152602560248201527f4552433732313a207472616e736665722066726f6d20696e636f72726563742060448201526437bbb732b960d91b6064820152608401610403565b6001600160a01b038216610a985760405162461bcd60e51b8152602060048201526024808201527f4552433732313a207472616e7366657220746f20746865207a65726f206164646044820152637265737360e01b6064820152608401610403565b610aa3600082610867565b6001600160a01b0383166000908152600360205260408120805460019290610acc9084906117c6565b90915550506001600160a01b0382166000908152600360205260408120805460019290610afa90849061179a565b909155505060008181526002602052604080822080546001600160a01b0319166001600160a01b0386811691821790925591518493918716917fddf252ad1be2c89b69c2b068fc378daa952ba7f163c4a11628f55a4df523b3ef91a4505050565b610738828260405180602001604052806000815250610ec3565b610b7e8261084a565b610be15760405162461bcd60e51b815260206004820152602e60248201527f45524337323155524953746f726167653a2055524920736574206f66206e6f6e60448201526d32bc34b9ba32b73a103a37b5b2b760911b6064820152608401610403565b6000828152600660209081526040909120825161053992840190611328565b600780546001600160a01b038381166001600160a01b0319831681179093556040519116919082907f8be0079c531659141344cd1fd0a4f28419497f9722a3daafe3b4186f6b6457e090600090a35050565b816001600160a01b0316836001600160a01b03161415610cb45760405162461bcd60e51b815260206004820152601960248201527f4552433732313a20617070726f766520746f2063616c6c6572000000000000006044820152606401610403565b6001600160a01b03838116600081815260056020908152604080832094871680845294825291829020805460ff191686151590811790915591519182527f17307eab39ab6107e8899845ad3d59bd9653f200f220920489ca2b5937696c31910160405180910390a3505050565b610d2c8484846109bf565b610d3884848484610ef6565b61076e5760405162461bcd60e51b8152600401610403906116f7565b6060610d5f8261084a565b610dc55760405162461bcd60e51b815260206004820152603160248201527f45524337323155524953746f726167653a2055524920717565727920666f72206044820152703737b732bc34b9ba32b73a103a37b5b2b760791b6064820152608401610403565b60008281526006602052604081208054610dde90611809565b80601f0160208091040260200160405190810160405280929190818152602001828054610e0a90611809565b8015610e575780601f10610e2c57610100808354040283529160200191610e57565b820191906000526020600020905b815481529060010190602001808311610e3a57829003601f168201915b505050505090506000610e7560408051602081019091526000815290565b9050805160001415610e88575092915050565b815115610eba578082604051602001610ea2929190611678565b60405160208183030381529060405292505050919050565b6109b784611003565b610ecd83836110db565b610eda6000848484610ef6565b6105395760405162461bcd60e51b8152600401610403906116f7565b60006001600160a01b0384163b15610ff857604051630a85bd0160e11b81526001600160a01b0385169063150b7a0290610f3a9033908990889088906004016116a7565b602060405180830381600087803b158015610f5457600080fd5b505af1925050508015610f84575060408051601f3d908101601f19168201909252610f81918101906115d2565b60015b610fde573d808015610fb2576040519150601f19603f3d011682016040523d82523d6000602084013e610fb7565b606091505b508051610fd65760405162461bcd60e51b8152600401610403906116f7565b805181602001fd5b6001600160e01b031916630a85bd0160e11b1490506109b7565b506001949350505050565b606061100e8261084a565b6110725760405162461bcd60e51b815260206004820152602f60248201527f4552433732314d657461646174613a2055524920717565727920666f72206e6f60448201526e3732bc34b9ba32b73a103a37b5b2b760891b6064820152608401610403565b600061108960408051602081019091526000815290565b905060008151116110a957604051806020016040528060008152506110d4565b806110b38461120e565b6040516020016110c4929190611678565b6040516020818303038152906040525b9392505050565b6001600160a01b0382166111315760405162461bcd60e51b815260206004820181905260248201527f4552433732313a206d696e7420746f20746865207a65726f20616464726573736044820152606401610403565b61113a8161084a565b156111875760405162461bcd60e51b815260206004820152601c60248201527f4552433732313a20746f6b656e20616c7265616479206d696e746564000000006044820152606401610403565b6001600160a01b03821660009081526003602052604081208054600192906111b090849061179a565b909155505060008181526002602052604080822080546001600160a01b0319166001600160a01b03861690811790915590518392907fddf252ad1be2c89b69c2b068fc378daa952ba7f163c4a11628f55a4df523b3ef908290a45050565b6060816112325750506040805180820190915260018152600360fc1b602082015290565b8160005b811561125c578061124681611844565b91506112559050600a836117b2565b9150611236565b60008167ffffffffffffffff81111561128557634e487b7160e01b600052604160045260246000fd5b6040519080825280601f01601f1916602001820160405280156112af576020820181803683370190505b5090505b84156109b7576112c46001836117c6565b91506112d1600a8661185f565b6112dc90603061179a565b60f81b8183815181106112ff57634e487b7160e01b600052603260045260246000fd5b60200101906001600160f81b031916908160001a905350611321600a866117b2565b94506112b3565b82805461133490611809565b90600052602060002090601f016020900481019282611356576000855561139c565b82601f1061136f57805160ff191683800117855561139c565b8280016001018555821561139c579182015b8281111561139c578251825591602001919060010190611381565b506113a89291506113ac565b5090565b5b808211156113a857600081556001016113ad565b600067ffffffffffffffff808411156113dc576113dc61189f565b604051601f8501601f19908116603f011681019082821181831017156114045761140461189f565b8160405280935085815286868601111561141d57600080fd5b858560208301376000602087830101525050509392505050565b80356001600160a01b038116811461144e57600080fd5b919050565b600060208284031215611464578081fd5b6110d482611437565b6000806040838503121561147f578081fd5b61148883611437565b915061149660208401611437565b90509250929050565b6000806000606084860312156114b3578081fd5b6114bc84611437565b92506114ca60208501611437565b9150604084013590509250925092565b600080600080608085870312156114ef578081fd5b6114f885611437565b935061150660208601611437565b925060408501359150606085013567ffffffffffffffff811115611528578182fd5b8501601f81018713611538578182fd5b611547878235602084016113c1565b91505092959194509250565b60008060408385031215611565578182fd5b61156e83611437565b915060208301358015158114611582578182fd5b809150509250929050565b6000806040838503121561159f578182fd5b6115a883611437565b946020939093013593505050565b6000602082840312156115c7578081fd5b81356110d4816118b5565b6000602082840312156115e3578081fd5b81516110d4816118b5565b6000602082840312156115ff578081fd5b813567ffffffffffffffff811115611615578182fd5b8201601f81018413611625578182fd5b6109b7848235602084016113c1565b600060208284031215611645578081fd5b5035919050565b600081518084526116648160208601602086016117dd565b601f01601f19169290920160200192915050565b6000835161168a8184602088016117dd565b83519083019061169e8183602088016117dd565b01949350505050565b6001600160a01b03858116825284166020820152604081018390526080606082018190526000906116da9083018461164c565b9695505050505050565b6020815260006110d4602083018461164c565b60208082526032908201527f4552433732313a207472616e7366657220746f206e6f6e20455243373231526560408201527131b2b4bb32b91034b6b83632b6b2b73a32b960711b606082015260800190565b60208082526031908201527f4552433732313a207472616e736665722063616c6c6572206973206e6f74206f6040820152701ddb995c881b9bdc88185c1c1c9bdd9959607a1b606082015260800190565b600082198211156117ad576117ad611873565b500190565b6000826117c1576117c1611889565b500490565b6000828210156117d8576117d8611873565b500390565b60005b838110156117f85781810151838201526020016117e0565b8381111561076e5750506000910152565b600181811c9082168061181d57607f821691505b6020821081141561183e57634e487b7160e01b600052602260045260246000fd5b50919050565b600060001982141561185857611858611873565b5060010190565b60008261186e5761186e611889565b500690565b634e487b7160e01b600052601160045260246000fd5b634e487b7160e01b600052601260045260246000fd5b634e487b7160e01b600052604160045260246000fd5b6001600160e01b03198116811461084757600080fdfea2646970667358221220e7fb74ed442e89fc77f2cebcec50c5a045316c5bf032d768bd6c31dfe58deadb64736f6c63430008040033",
  "linkReferences": {},
  "deployedLinkReferences": {}
}