{
  "_format": "hh-sol-artifact-1",
  "contractName": "NFTEscrow",
  "sourceName": "contracts/NFTEscrow.sol",
  "abi": [
    {
      "anonymous": false,
      "inputs": [
        {
          "indexed": true,
          "internalType": "uint256",
          "name": "_id",
          "type": "uint256"
        },
        {
          "components": [
            {
              "internalType": "uint256",
              "name": "id",
              "type": "uint256"
            },
            {
              "internalType": "address",
              "name": "nftContract",
              "type": "address"
            },
            {
              "internalType": "uint256",
              "name": "tokenId",
              "type": "uint256"
            },
            {
              "internalType": "address",
              "name": "seller",
              "type": "address"
            },
            {
              "internalType": "address",
              "name": "buyer",
              "type": "address"
            },
            {
              "internalType": "uint256",
              "name": "price",
              "type": "uint256"
            },
            {
              "internalType": "bool",
              "name": "completed",
              "type": "bool"
            }
          ],
          "indexed": false,
          "internalType": "struct NFTEscrow.Trade",
          "name": "_trade",
          "type": "tuple"
        }
      ],
      "name": "newTrade",
      "type": "event"
    },
    {
      "anonymous": false,
      "inputs": [
        {
          "indexed": true,
          "internalType": "uint256",
          "name": "_id",
          "type": "uint256"
        },
        {
          "components": [
            {
              "internalType": "uint256",
              "name": "id",
              "type": "uint256"
            },
            {
              "internalType": "address",
              "name": "nftContract",
              "type": "address"
            },
            {
              "internalType": "uint256",
              "name": "tokenId",
              "type": "uint256"
            },
            {
              "internalType": "address",
              "name": "seller",
              "type": "address"
            },
            {
              "internalType": "address",
              "name": "buyer",
              "type": "address"
            },
            {
              "internalType": "uint256",
              "name": "price",
              "type": "uint256"
            },
            {
              "internalType": "bool",
              "name": "completed",
              "type": "bool"
            }
          ],
          "indexed": false,
          "internalType": "struct NFTEscrow.Trade",
          "name": "_trade",
          "type": "tuple"
        }
      ],
      "name": "tradeCancelled",
      "type": "event"
    },
    {
      "anonymous": false,
      "inputs": [
        {
          "indexed": true,
          "internalType": "uint256",
          "name": "_id",
          "type": "uint256"
        },
        {
          "components": [
            {
              "internalType": "uint256",
              "name": "id",
              "type": "uint256"
            },
            {
              "internalType": "address",
              "name": "nftContract",
              "type": "address"
            },
            {
              "internalType": "uint256",
              "name": "tokenId",
              "type": "uint256"
            },
            {
              "internalType": "address",
              "name": "seller",
              "type": "address"
            },
            {
              "internalType": "address",
              "name": "buyer",
              "type": "address"
            },
            {
              "internalType": "uint256",
              "name": "price",
              "type": "uint256"
            },
            {
              "internalType": "bool",
              "name": "completed",
              "type": "bool"
            }
          ],
          "indexed": false,
          "internalType": "struct NFTEscrow.Trade",
          "name": "_trade",
          "type": "tuple"
        }
      ],
      "name": "tradeCompleted",
      "type": "event"
    },
    {
      "inputs": [
        {
          "internalType": "uint256",
          "name": "",
          "type": "uint256"
        }
      ],
      "name": "Trades",
      "outputs": [
        {
          "internalType": "uint256",
          "name": "id",
          "type": "uint256"
        },
        {
          "internalType": "address",
          "name": "nftContract",
          "type": "address"
        },
        {
          "internalType": "uint256",
          "name": "tokenId",
          "type": "uint256"
        },
        {
          "internalType": "address",
          "name": "seller",
          "type": "address"
        },
        {
          "internalType": "address",
          "name": "buyer",
          "type": "address"
        },
        {
          "internalType": "uint256",
          "name": "price",
          "type": "uint256"
        },
        {
          "internalType": "bool",
          "name": "completed",
          "type": "bool"
        }
      ],
      "stateMutability": "view",
      "type": "function"
    },
    {
      "inputs": [
        {
          "internalType": "uint256",
          "name": "_tradeId",
          "type": "uint256"
        }
      ],
      "name": "accept",
      "outputs": [],
      "stateMutability": "payable",
      "type": "function"
    },
    {
      "inputs": [
        {
          "internalType": "uint256",
          "name": "_tradeId",
          "type": "uint256"
        }
      ],
      "name": "cancelTrade",
      "outputs": [],
      "stateMutability": "nonpayable",
      "type": "function"
    },
    {
      "inputs": [
        {
          "internalType": "address",
          "name": "_NFTContract",
          "type": "address"
        },
        {
          "internalType": "uint256",
          "name": "_tokenId",
          "type": "uint256"
        },
        {
          "internalType": "address",
          "name": "_buyer",
          "type": "address"
        },
        {
          "internalType": "uint256",
          "name": "_price",
          "type": "uint256"
        }
      ],
      "name": "startTrade",
      "outputs": [],
      "stateMutability": "nonpayable",
      "type": "function"
    },
    {
      "inputs": [],
      "name": "totalTrades",
      "outputs": [
        {
          "internalType": "uint256",
          "name": "",
          "type": "uint256"
        }
      ],
      "stateMutability": "view",
      "type": "function"
    }
  ],
  "bytecode": "0x6080604052600060015534801561001557600080fd5b506107fe806100256000396000f3fe60806040526004361061004a5760003560e01c806309ec6cc71461004f57806318385f481461007157806319b05f4914610123578063750cae3b14610136578063e275c99714610156575b600080fd5b34801561005b57600080fd5b5061006f61006a366004610717565b61017a565b005b34801561007d57600080fd5b506100da61008c366004610717565b600060208190529081526040902080546001820154600283015460038401546004850154600586015460069096015494956001600160a01b0394851695939492831693929091169160ff1687565b604080519788526001600160a01b0396871660208901528701949094529184166060860152909216608084015260a0830191909152151560c082015260e0015b60405180910390f35b61006f610131366004610717565b610272565b34801561014257600080fd5b5061006f6101513660046106d0565b610425565b34801561016257600080fd5b5061016c60015481565b60405190815260200161011a565b60008181526020818152604091829020825160e0810184528154815260018201546001600160a01b0390811693820193909352600282015493810193909352600381015482166060840181905260048201549092166080840152600581015460a08401526006015460ff16151560c0830152331461023f5760405162461bcd60e51b815260206004820152601f60248201527f4f6e6c792073656c6c65722063616e2063616e63656c2061207472616465210060448201526064015b60405180910390fd5b60008281526020818152604091829020600601805460ff191660011790558201519082015161026e9190610548565b5050565b60008181526020818152604091829020825160e0810184528154815260018201546001600160a01b0390811693820193909352600282015493810193909352600381015482166060840152600481015490911660808301819052600582015460a084015260069091015460ff16151560c083015233146103255760405162461bcd60e51b815260206004820152600e60248201526d496e76616c69642062757965722160901b6044820152606401610236565b8060a0015134101561036d5760405162461bcd60e51b8152602060048201526011602482015270496e636f727265637420616d6f756e742160781b6044820152606401610236565b60008281526020818152604091829020600601805460ff191660011790558201519082015161039c9190610548565b60608101516040516001600160a01b03909116903480156108fc02916000818181858888f193505050501580156103d7573d6000803e3d6000fd5b50817f03c9514b68a692bc577546a62f531817033a0b6707c32fa5dbc8aaadcd58fb41600080858152602001908152602001600020604051610419919061072f565b60405180910390a25050565b61042f84846105b6565b6040805160e081018252600180548083526001600160a01b0380891660208086019182528587018a815233606088019081528a85166080890190815260a089018b8152600060c08b01818152988152948590528a852099518a55945189890180549188166001600160a01b0319928316179055925160028a01559051600389018054918716918416919091179055516004880180549190951691161790925551600585015590516006909301805493151560ff19909416939093179092555480825290829020915190917f8654338c89fb3f085407807394846443ce91041a748d48d37e1c5cc82a61dfd491610525919061072f565b60405180910390a26001805490600061053d83610789565b919050555050505050565b604051632142170760e11b81523060048201523360248201526044810182905282906001600160a01b038216906342842e0e906064015b600060405180830381600087803b15801561059957600080fd5b505af11580156105ad573d6000803e3d6000fd5b50505050505050565b6040516331a9108f60e11b815260048101829052829033906001600160a01b03831690636352211e9060240160206040518083038186803b1580156105fa57600080fd5b505afa15801561060e573d6000803e3d6000fd5b505050506040513d601f19601f8201168201806040525081019061063291906106ad565b6001600160a01b0316146106745760405162461bcd60e51b81526020600482015260096024820152682737ba1037bbb732b960b91b6044820152606401610236565b6040516323b872dd60e01b8152336004820152306024820152604481018390526001600160a01b038216906323b872dd9060640161057f565b6000602082840312156106be578081fd5b81516106c9816107b0565b9392505050565b600080600080608085870312156106e5578283fd5b84356106f0816107b0565b9350602085013592506040850135610707816107b0565b9396929550929360600135925050565b600060208284031215610728578081fd5b5035919050565b8154815260018201546001600160a01b039081166020830152600283015460408301526003830154811660608301526004830154166080820152600582015460a082015260069091015460ff16151560c082015260e00190565b60006000198214156107a957634e487b7160e01b81526011600452602481fd5b5060010190565b6001600160a01b03811681146107c557600080fd5b5056fea2646970667358221220fbb43b0e58bc28aa6662da24fde33f1ef7d8d8f85eb2e78af38d0ce7c4e4174e64736f6c63430008040033",
  "linkReferences": {},
  "deployedLinkReferences": {}
}